{
  "_format": "hh-sol-artifact-1",
  "contractName": "WIDRSLogger",
  "sourceName": "contracts/WIDRSLogger.sol",
  "abi": [
    {
      "anonymous": false,
      "inputs": [
        {
          "indexed": false,
          "internalType": "bytes32",
          "name": "hash",
          "type": "bytes32"
        },
        {
          "indexed": false,
          "internalType": "string",
          "name": "attackType",
          "type": "string"
        },
        {
          "indexed": false,
          "internalType": "string",
          "name": "mac",
          "type": "string"
        },
        {
          "indexed": false,
          "internalType": "uint256",
          "name": "timestamp",
          "type": "uint256"
        },
        {
          "indexed": false,
          "internalType": "address",
          "name": "reporter",
          "type": "address"
        }
      ],
      "name": "AttackLogged",
      "type": "event"
    },
    {
      "inputs": [
        {
          "internalType": "uint256",
          "name": "index",
          "type": "uint256"
        }
      ],
      "name": "getLog",
      "outputs": [
        {
          "internalType": "bytes32",
          "name": "",
          "type": "bytes32"
        },
        {
          "internalType": "string",
          "name": "",
          "type": "string"
        },
        {
          "internalType": "string",
          "name": "",
          "type": "string"
        },
        {
          "internalType": "uint256",
          "name": "",
          "type": "uint256"
        },
        {
          "internalType": "address",
          "name": "",
          "type": "address"
        }
      ],
      "stateMutability": "view",
      "type": "function"
    },
    {
      "inputs": [
        {
          "internalType": "bytes32",
          "name": "hash",
          "type": "bytes32"
        },
        {
          "internalType": "string",
          "name": "attackType",
          "type": "string"
        },
        {
          "internalType": "string",
          "name": "mac",
          "type": "string"
        }
      ],
      "name": "logAttack",
      "outputs": [],
      "stateMutability": "nonpayable",
      "type": "function"
    },
    {
      "inputs": [
        {
          "internalType": "uint256",
          "name": "",
          "type": "uint256"
        }
      ],
      "name": "logs",
      "outputs": [
        {
          "internalType": "bytes32",
          "name": "hash",
          "type": "bytes32"
        },
        {
          "internalType": "string",
          "name": "attackType",
          "type": "string"
        },
        {
          "internalType": "string",
          "name": "mac",
          "type": "string"
        },
        {
          "internalType": "uint256",
          "name": "timestamp",
          "type": "uint256"
        },
        {
          "internalType": "address",
          "name": "reporter",
          "type": "address"
        }
      ],
      "stateMutability": "view",
      "type": "function"
    },
    {
      "inputs": [],
      "name": "totalLogs",
      "outputs": [
        {
          "internalType": "uint256",
          "name": "",
          "type": "uint256"
        }
      ],
      "stateMutability": "view",
      "type": "function"
    }
  ],
  "bytecode": "0x608060405234801561001057600080fd5b50610cbe806100206000396000f3fe608060405234801561001057600080fd5b506004361061004c5760003560e01c80633206b2c614610051578063e4ce066214610085578063e79899bd146100a3578063ef2ba2d7146100d7575b600080fd5b61006b600480360381019061006691906105ed565b6100f3565b60405161007c959493929190610713565b60405180910390f35b61008d6102e6565b60405161009a9190610774565b60405180910390f35b6100bd60048036038101906100b891906105ed565b6102f2565b6040516100ce959493929190610713565b60405180910390f35b6100f160048036038101906100ec91906108f0565b610468565b005b600060608060008060008087815481106101105761010f61097b565b5b90600052602060002090600502016040518060a001604052908160008201548152602001600182018054610143906109d9565b80601f016020809104026020016040519081016040528092919081815260200182805461016f906109d9565b80156101bc5780601f10610191576101008083540402835291602001916101bc565b820191906000526020600020905b81548152906001019060200180831161019f57829003601f168201915b505050505081526020016002820180546101d5906109d9565b80601f0160208091040260200160405190810160405280929190818152602001828054610201906109d9565b801561024e5780601f106102235761010080835404028352916020019161024e565b820191906000526020600020905b81548152906001019060200180831161023157829003601f168201915b50505050508152602001600382015481526020016004820160009054906101000a900473ffffffffffffffffffffffffffffffffffffffff1673ffffffffffffffffffffffffffffffffffffffff1673ffffffffffffffffffffffffffffffffffffffff1681525050905080600001518160200151826040015183606001518460800151955095509550955095505091939590929450565b60008080549050905090565b6000818154811061030257600080fd5b906000526020600020906005020160009150905080600001549080600101805461032b906109d9565b80601f0160208091040260200160405190810160405280929190818152602001828054610357906109d9565b80156103a45780601f10610379576101008083540402835291602001916103a4565b820191906000526020600020905b81548152906001019060200180831161038757829003601f168201915b5050505050908060020180546103b9906109d9565b80601f01602080910402602001604051908101604052809291908181526020018280546103e5906109d9565b80156104325780601f1061040757610100808354040283529160200191610432565b820191906000526020600020905b81548152906001019060200180831161041557829003601f168201915b5050505050908060030154908060040160009054906101000a900473ffffffffffffffffffffffffffffffffffffffff16905085565b60006040518060a001604052808581526020018481526020018381526020014281526020013373ffffffffffffffffffffffffffffffffffffffff16815250905060008190806001815401808255809150506001900390600052602060002090600502016000909190919091506000820151816000015560208201518160010190816104f49190610bb6565b50604082015181600201908161050a9190610bb6565b506060820151816003015560808201518160040160006101000a81548173ffffffffffffffffffffffffffffffffffffffff021916908373ffffffffffffffffffffffffffffffffffffffff16021790555050507f15e2cb05e9f56c372fe03849ccdd008154ae58af6bd3d86e0ae9599343f1fa568484844233604051610595959493929190610713565b60405180910390a150505050565b6000604051905090565b600080fd5b600080fd5b6000819050919050565b6105ca816105b7565b81146105d557600080fd5b50565b6000813590506105e7816105c1565b92915050565b600060208284031215610603576106026105ad565b5b6000610611848285016105d8565b91505092915050565b6000819050919050565b61062d8161061a565b82525050565b600081519050919050565b600082825260208201905092915050565b60005b8381101561066d578082015181840152602081019050610652565b60008484015250505050565b6000601f19601f8301169050919050565b600061069582610633565b61069f818561063e565b93506106af81856020860161064f565b6106b881610679565b840191505092915050565b6106cc816105b7565b82525050565b600073ffffffffffffffffffffffffffffffffffffffff82169050919050565b60006106fd826106d2565b9050919050565b61070d816106f2565b82525050565b600060a0820190506107286000830188610624565b818103602083015261073a818761068a565b9050818103604083015261074e818661068a565b905061075d60608301856106c3565b61076a6080830184610704565b9695505050505050565b600060208201905061078960008301846106c3565b92915050565b6107988161061a565b81146107a357600080fd5b50565b6000813590506107b58161078f565b92915050565b600080fd5b600080fd5b7f4e487b7100000000000000000000000000000000000000000000000000000000600052604160045260246000fd5b6107fd82610679565b810181811067ffffffffffffffff8211171561081c5761081b6107c5565b5b80604052505050565b600061082f6105a3565b905061083b82826107f4565b919050565b600067ffffffffffffffff82111561085b5761085a6107c5565b5b61086482610679565b9050602081019050919050565b82818337600083830152505050565b600061089361088e84610840565b610825565b9050828152602081018484840111156108af576108ae6107c0565b5b6108ba848285610871565b509392505050565b600082601f8301126108d7576108d66107bb565b5b81356108e7848260208601610880565b91505092915050565b600080600060608486031215610909576109086105ad565b5b6000610917868287016107a6565b935050602084013567ffffffffffffffff811115610938576109376105b2565b5b610944868287016108c2565b925050604084013567ffffffffffffffff811115610965576109646105b2565b5b610971868287016108c2565b9150509250925092565b7f4e487b7100000000000000000000000000000000000000000000000000000000600052603260045260246000fd5b7f4e487b7100000000000000000000000000000000000000000000000000000000600052602260045260246000fd5b600060028204905060018216806109f157607f821691505b602082108103610a0457610a036109aa565b5b50919050565b60008190508160005260206000209050919050565b60006020601f8301049050919050565b600082821b905092915050565b600060088302610a6c7fffffffffffffffffffffffffffffffffffffffffffffffffffffffffffffffff82610a2f565b610a768683610a2f565b95508019841693508086168417925050509392505050565b6000819050919050565b6000610ab3610aae610aa9846105b7565b610a8e565b6105b7565b9050919050565b6000819050919050565b610acd83610a98565b610ae1610ad982610aba565b848454610a3c565b825550505050565b600090565b610af6610ae9565b610b01818484610ac4565b505050565b5b81811015610b2557610b1a600082610aee565b600181019050610b07565b5050565b601f821115610b6a57610b3b81610a0a565b610b4484610a1f565b81016020851015610b53578190505b610b67610b5f85610a1f565b830182610b06565b50505b505050565b600082821c905092915050565b6000610b8d60001984600802610b6f565b1980831691505092915050565b6000610ba68383610b7c565b9150826002028217905092915050565b610bbf82610633565b67ffffffffffffffff811115610bd857610bd76107c5565b5b610be282546109d9565b610bed828285610b29565b600060209050601f831160018114610c205760008415610c0e578287015190505b610c188582610b9a565b865550610c80565b601f198416610c2e86610a0a565b60005b82811015610c5657848901518255600182019150602085019450602081019050610c31565b86831015610c735784890151610c6f601f891682610b7c565b8355505b6001600288020188555050505b50505050505056fea2646970667358221220a70ee745f47a58049f4ce0f7242360d7b447a87cc3abf020f97851292507ce8664736f6c63430008140033",
  "linkReferences": {},
  "deployedLinkReferences": {}
}